:020000040800F2
:1000000048070020A5010008171A00086519000814
:10001000151A00082F0B0008FF1F00080000000041
:10002000000000000000000000000000791B000834
:10003000310B000800000000191A0008D11B00084D
:10004000BF010008BF010008BF010008BF01000890
:10005000BF010008BF010008BF010008BF01000880
:10006000BF010008BF010008BF010008BF01000870
:10007000BF010008BF010008BF010008BF01000860
:10008000BF010008BF010008BF010008BF01000850
:10009000BF010008BF010008BF010008BF01000840
:1000A000BF010008BF010008BF010008BF01000830
:1000B000BF010008BF010008BF010008BF01000820
:1000C000BF010008BF010008BF010008BF01000810
:1000D000BF010008BF010008BF010008BF01000800
:1000E000BF010008BF010008BF01000800F002F8CE
:1000F00000F048F80AA090E8000C82448344AAF17A
:100100000107DA4501D100F03DF8AFF2090EBAE877
:100110000F0013F0010F18BFFB1A43F0010318473B
:100120000C2000002C200000103A24BF78C878C1B1
:10013000FAD8520724BF30C830C144BF04680C60ED
:10014000704700000023002400250026103A28BF35
:1001500078C1FBD8520728BF30C148BF0B60704739
:10016000642900F08D80002070471FB500F0D4FC9A
:1001700004000020002101F0ADFF401C60601FBDA5
:1001800010B510BD00F08CFC1146FFF7EEFF01F03A
:100190004FFF00F0B3FC03B4FFF7F2FF03BC00F025
:1001A000BFFC00000948804709480047FEE7FEE71A
:1001B000FEE7FEE7FEE7FEE7FEE7FEE7FEE7FEE717
:1001C00004480549054A064B70470000251C0008F5
:1001D000ED000008480100204807002048030020E7
:1001E000480300200FB41CB50C0007AA009001D0F2
:1001F0002044401E074B7B4469460190069800F05E
:1002000026FA002C03D06946002000F033FA1CBC0B
:100210005DF814FB850400002DE9F0410E4604460C
:10022000002020622046E168884730B3252805D0A9
:10023000D4E901219047206A401CF2E7E16820469A
:1002400000278847050018D0A5F14100192802D8D9
:1002500020354FF400673246294620462760FFF7D5
:100260007FFF40B1012804D0F61D26F007060836AE
:10027000D8E7361DD6E72846DAE7206ABDE8F081E0
:100280002DE9F0410646002410687529314616A56F
:1002900010D0AFF30080002802DA404213A507E037
:1002A00031688A0701D512A502E0490704D511A5D6
:1002B000012401E0AFF3008000210A2206F12407A7
:1002C00009E0B0FBF2FCB0FBF2F302FB1C003030A3
:1002D00078541846491C0028F3D123462A46304654
:1002E000BDE8F04100F055B9000000002D0000000D
:1002F0002B000000200000000FB400B58DB010A945
:10030000099000910B904FF0FF300A9000200C9064
:10031000064878440690064878446A4607900F9944
:1003200009A800F0C9F90DB05DF814FBC303000083
:10033000DB0300002DE9FF5F1D464FF0FF3B9146B8
:100340004FF000085F46D5E90146A96901987F1C76
:100350008847296A824688470028F6D1BAF1FF3FCC
:100360000CD0002E24F4C06419DD600614D5BAF157
:100370002B0F09D0BAF12D0F0ED103E0584604B06F
:10038000BDE8F09F44F48064A96901987F1C884708
:10039000761E8246002E02DDBAF1300F03D0B9F18D
:1003A000000F26D032E0A969761E01987F1C44F424
:1003B00000748847002E824605DDBAF1780F06D01A
:1003C000BAF1580F03D0B9F1000F10D01EE0B9F107
:1003D000000F02D0B9F1100F18D1A969761E01984B
:1003E0007F1C24F4007488478246102002E0082015
:1003F00000E00A20814609E0A96908FB0908761E89
:1004000001987F1C44F4007488478246002E05DD65
:100410004946504600F03BF90028EDDAE9690198B9
:100420008847A00502D46FF00100A8E7E00725D1B6
:10043000600613D5600502D5C8F1000000E0404613
:1004400029680A1D2A600968220501D5087015E08F
:10045000220701D5088011E008600FE02868011D1F
:1004600029600068210502D580F8008006E0210798
:1004700002D5A0F8008001E0C0F8008038467EE791
:1004800010B5431C02E010F8011B71B18107FAD1CD
:100490004FF0013202C88C1A8C4314EAC211F9D011
:1004A000C01A0A0603D0C01E10BDC01A10BD0A042F
:1004B00001D0801E10BD0902FCD0401E10BD4FF0BF
:1004C000000200B5134694469646203922BFA0E8A4
:1004D0000C50A0E80C50B1F12001BFF4F7AF0907B0
:1004E00028BFA0E80C5048BF0CC05DF804EB8900A1
:1004F00028BF40F8042B08BF704748BF20F8022BE4
:1005000011F0804F18BF00F8012B70474FF0013CED
:1005100050F8042B51F8043B9A4221D1A2EB0C0372
:10052000934313EACC1317D150F8042B51F8043B32
:100530009A4215D1A2EB0C03934313EACC130BD1CF
:1005400050F8042B51F8043B9A4209D1A2EB0C035A
:10055000934313EACC13DBD04FF00000704700BF89
:10056000D01A01BAB1FA81F101F0180122FA01F0B2
:10057000CB40C1F12001DBB2C0B2C01A2CFA01F3AA
:10058000D11A914311EAC311E6D170477047704701
:1005900070472DE9F0470D4699469246044600F112
:1005A00024080168880604D5E06921F01001216063
:1005B00000E00120A84201DD471B00E00027A169FF
:1005C0007A1902EB0900081AA0612078C00602D44B
:1005D0002046AFF30080002608E0D4E901211AF894
:1005E00006009047206A401C761C20624E45F4DBD2
:1005F0002078C0060AD52046AFF3008006E0D4E993
:10060000012130209047206A401C2062381EA7F14B
:100610000107F4DC07E0D4E9012118F80500904750
:10062000206A401C2062281EA5F10105F3DC20464B
:10063000AFF300802078000602D50220BDE8F087E5
:100640000120FBE701694A1C02610878704700B588
:100650008FB0CDE901310021059105497944CDE9FB
:10066000031011466846FFF7D7FD0FB000BD00002C
:10067000E5FFFFFF0A6802F8010B0A607047D1E945
:1006800000239A4202D2531C0B60107070473A2824
:1006900000D2303820F02002412A01D3A2F13700E5
:1006A000884201D34FF0FF307047000002681144C8
:1006B0001378016018467047D1600549794451614B
:1006C00004497944116200211161114600F02EB8ED
:1006D000EDFFFFFF53000000426842B1016811F8CE
:1006E000013B23B1521EC0E9001218467047012198
:1006F000C160881E704742685AB1C368016843B937
:1007000083688B4205D0491E521CC0E900120020AC
:1007100070474FF0FF30704710B5044600F0E6F91F
:100720000068005D00F0010010BD00002DE9F34FEE
:100730004FF0000A0C4656468DB001200C9001F196
:100740000C000B9062690B9801219047051E2DD07B
:10075000252D2CD0216A8847C0B162690B980121F0
:100760009047216A88470028F7D16269411E0B989B
:10077000904700E0761CA1690D988847216A884758
:100780000028F7D1E1690D988847DBE7A1690D984A
:100790008847A842074601D1761CD3E7E1690D9846
:1007A00088477F1C02D1BAF1000F6FD06BE16269FC
:1007B0000B9800273D46394690472A2804D16269A4
:1007C0000B98012190470125DFF8D08262690B98D0
:1007D00001219047A0F130010A290AD24745E5DC02
:1007E00007EB870100EB4107303FDFD445F01005F0
:1007F000ECE7E90601D46FF000476C280AD04C28DA
:1008000014D0682815D06A280DD074281CD07A28F6
:100810001AD01DE062690B98012190476C2802D024
:1008200045F0040514E045F002050DE045F0200513
:100830000AE062690B9801219047682802D045F0D0
:10084000080505E045F4006562690B9801219047B1
:10085000C4E9015765283DD019DC58287AD00CDC52
:10086000452837D004DC252826D041289ED131E008
:1008700046282FD0472899D12CE05B2877D06128D3
:1008800028D063287CD0642823D15AE0F6E06F2872
:1008900048D008DC66281DD067281BD0692821D0E5
:1008A0006E2816D127E0702845D0732868D07528A7
:1008B00047D078280DD14DE0A1690D9888472528AB
:1008C00005463FF469AFE1690D9888476D1C3FF418
:1008D0006AAFD8E00D9923466A466FF00100AFF386
:1008E0000080C5E045F0400023464FF00002606004
:1008F000A80736D43EE0E8077FF447AF2068011D23
:1009000021600068290501D506701BE7290701D57C
:10091000068017E7A90703D5F117C0E9006111E7C1
:1009200006600FE745F0400023464FF00802606084
:10093000A80716D41EE040F60E0125EA010060600B
:1009400016E045F0400023464FF00A026060A80719
:1009500007D40FE045F040006060A80708D52346A3
:1009600010220D996FF00100AFF3008080E007E0E6
:10097000102223460D996FF00100FFF7DBFC77E0B2
:100980004FF0000963284F46C8464B46CB4602D07D
:100990005B2806D038E0E80601D40120A0600127DA
:1009A00032E06269D4F80CB00B98012190475E28C0
:1009B00007D14FF0010949466269D4F80CB00B9891
:1009C0009047216939B900210A4603AB43F8212039
:1009D000491C0829FADBD8B3216949B308F1010899
:1009E00062690B98012190475D28F4D1B9F1000F9D
:1009F00009D0002003A951F82020D24341F820203B
:100A0000401C0828F7DB03AB2069002820794FEA57
:100A100040701ED05B462246CDF80080CDE901979C
:100A20000D9900286FF0010020DAAFF300801FE07D
:100A3000C11703AA00EBD1614B1121F01F0102EB9A
:100A40008302411A13680120884003431360C7E7FB
:100A500019E00D99224600286FF00100009702DA94
:100A6000AFF3008004E0AFF3008001E0AFF300805B
:100A700000280ADA401C06D10C9820B14FF0FF3054
:100A80000FB0BDE8F08F5046FAE7E90701D10AF14F
:100A9000010A064400200C9054E60000CCCCCC0C9B
:100AA000754600F035F8AE4605006946534620F01D
:100AB0000700854618B020B5FFF782FBBDE820404F
:100AC0004FF000064FF000074FF000084FF0000B0A
:100AD00021F00701AC46ACE8C009ACE8C009ACE8BD
:100AE000C009ACE8C0098D467047000010B500F0A1
:100AF00013F8001D10BD00BFDD15000010B5044641
:100B0000AFF300802046BDE81040FFF744BB000073
:100B100000487047E80000200048704708010020A6
:100B200001491820ABBEFEE7260002007047FEE731
:100B30007047000010B50B4CA0221421B4F904003A
:100B400001F06EFAA08096221E21B4F9020001F095
:100B500067FA6080207901F027F8A078BDE810409E
:100B600001F02CB8000000202DE9F84FDFF8B89113
:100B70000024A9F1040B23460F2709F1040AABF165
:100B8000040EC9E00125A5402A40AA427DD1674E46
:100B9000D1F804C0ACEB0608B44532D014DCBCF18B
:100BA000030F3AD009DCBCF1000F2AD0BCF1010FD1
:100BB0001CD0BCF1020F31D11DE0BCF1110F17D0D8
:100BC000BCF1120F2AD119E0B8F5881F19D006DC44
:100BD000B8F5803F15D0B8F5801F1FD111E0B8F5EA
:100BE000001F0ED0B8F5041F18D10AE0CB6815E03D
:100BF000CB681B1D12E0CB6808330FE0CB680C33C9
:100C00000CE08B682BB1012B4FF0080303D045613A
:100C100004E0042302E0056100E00023FF2A01D87C
:100C2000064601E000F104064FEA840501D9A5F16A
:100C30002005D6F8008007FA05FC28EA0C0803FA1C
:100C400005F548EA0508C6F800804D68ED0062D554
:100C5000374DAE6946F00106AE61AD6924F003067A
:100C600005F001050095334D06EB050CDCF8085046
:100C7000A607360F07FA06F825EA0805DFF8B88058
:100C8000404503D14FF0000817E044E0DFF8AC80A6
:100C9000404502D14FF001080FE0DFF8A480404545
:100CA00002D14FF0020808E0DFF89880404502D1F9
:100CB0004FF0030801E04FF0040808FA06F848EA8C
:100CC0000508CCF808804D68D9F80060ED024D4663
:100CD00001D5164300E096432E604D68DAF80060B7
:100CE000AD02554601D5164300E096432E604D688F
:100CF000DBF80060AD035D4601D5164300E0964386
:100D00002E604D68DEF80060ED03754601D5164390
:100D100000E096432E60641C0D682A46E5407FF48F
:100D200031AFBDE8F88F0000080401400000111049
:100D3000001002400000014000080140000C01408A
:100D40000010014000140140014880687047000015
:100D500008000020024881680278114481607047D1
:100D600008000020074810B5016841F0100101603B
:100D7000032000F067F80F2000F006F800F024F8D8
:100D8000002010BD0020024070B50D4D04464FF408
:100D90007A712878B1FBF0F00A490968B1FBF0F0EC
:100DA00000F0CEFA48B9102C07D200222146501E7E
:100DB00000F028F800206C6070BD012070BD0000BC
:100DC00008000020140000200C4808B5816941F09B
:100DD00001018161816901F001010091C16941F066
:100DE0008051C161C06900F08050009004484168A2
:100DF00021F0E06141F00071416008BD0010024047
:100E000000000140F0B40E4B1B680C46C3F30223F4
:100E1000C3F10705042D00D90425191D072901D2A6
:100E2000002300E0DB1E012606FA05F1491E2140E1
:100E300099409E40761E16403143F0BC01F0E0B868
:100E40000CED00E0064900F0070208684FF6FF03CA
:100E5000184040EA0220034A10430860704700002F
:100E60000CED00E00000FA052DE9F0470F46050003
:100E700061D0434E306800F00700B84209D23068B4
:100E800020F0070038433060306800F00700B842B7
:100E900051D128683B4C810712D5400703D56068C3
:100EA00040F4E06060602878000703D5606840F493
:100EB000605060606068A96820F0F00008436060DE
:100EC0002878C00728D06868012810D02168022837
:100ED00010D0890700292EDA616821F0030101434F
:100EE0006160FFF731FF804641F288390DE02168EB
:100EF0008903EFE78901EDE7FFF726FFA0EB080183
:100F0000494502D90320BDE8F0876068696800F0B0
:100F10000C00B0EB810FEFD1306800F00700B84251
:100F20000BD9306820F0070038433060306800F09B
:100F30000700B84201D00120E5E72878400705D531
:100F40006068E96820F4E060084360602878000782
:100F500006D56068296920F4605040EAC1006060ED
:100F600000F038F86168084AC1F30311515CC840C9
:100F70000649086006480068FFF706FF0020C2E740
:100F8000002002400010024012210008140000203E
:100F90000C0000200448054900684968044AC1F370
:100FA0000221515CC840704714000020001002402C
:100FB000222100080448054900684968044AC1F331
:100FC000C221515CC840704714000020001002404C
:100FD000222100080E4A51680E4801F00C03042B30
:100FE00011D0082B0FD10C48C1F38343C903C05C57
:100FF0000AD55168084AC1F34041921E515C054A26
:101000005043B0FBF1F0704704494843704700007B
:101010000010024000127A000221000800093D0081
:101020002DE9F84F040070D02078C04DC00749D09A
:101030006868C0F38100012807D06868C0F38100A8
:10104000022809D16868C00306D52868800339D50D
:1010500060680028E7D035E06068B0F5803F0BD0CD
:1010600010B1B0F5A02F11D0286820F4803028608E
:10107000286820F4802002E0286840F4803028604E
:10108000606890B1FFF760FE06460AE0286840F409
:1010900080202860F0E700BFFFF756FE801B642821
:1010A00073D828688003F7D50CE0FFF74DFE06469D
:1010B00005E000BFFFF748FE801B6428F0D82868D1
:1010C0008003F7D420789A4E80074FF001094FF043
:1010D000000839D5686810F00C0F07D06868C0F3B5
:1010E0008100022809D16868C00306D428688007F7
:1010F00014D52069012808D110E02069B0B1C6F8E4
:101100000090FFF721FE074605E00AE1FFF71CFE0D
:10111000C01B0228C4D828688007F7D528686169F1
:1011200020F0F80040EAC10028600DE0C6F8008019
:10113000FFF70AFE074604E0FFF706FEC01B022881
:1011400023D828688007F7D4207800072CD5794861
:10115000A169D9B1C0F80090FFF7F6FD074604E099
:10116000FFF7F2FDC01B02280FD8686A8007F7D589
:1011700071484FF4FA510068B0FBF1F0009000BFE5
:101180000098411E0091FAD20EE080E0C0F8008085
:10119000FFF7DAFD074604E0FFF7D6FDC01B022883
:1011A00075D8686A8007F7D42078400760D5E86969
:1011B0000027C00008D4E86940F08050E861E86981
:1011C000012700F0805000905C480168C90513D4E5
:1011D0000168834641F480710160FFF7B5FD8246E6
:1011E00006E000BFFFF7B0FDA0EB0A0064284ED870
:1011F000DBF80000C005F5D5E06801280AD008B189
:10120000052813D0286A20F001002862286A20F0FF
:10121000040002E0286A40F001002862E06841F220
:10122000883B98B1FFF790FD82460BE0286A40F0BA
:1012300004002862EEE700BFFFF786FDA0EB0A017D
:1012400059455AD8286A8007F6D50CE0FFF77CFD8F
:10125000824605E0FFF778FDA0EB0A0159454CD81E
:10126000286A8007F6D41FB1E86920F08050E86151
:10127000E06988B36968C1F38101022944D002287A
:10128000C6F8608004D0FFF75FFD044638E034E024
:10129000FFF75AFD074604E0FFF756FDC01B022882
:1012A0002BD828688001F7D4206AB0F5803F05D19B
:1012B0006868A16820F4003008436860D4E9080138
:1012C0000843696821F4741108436860C6F86090A7
:1012D000FFF73AFD044606E025E000BFFFF734FDC6
:1012E000001B022809D828688001F7D51BE000BF41
:1012F000FFF72AFD001B022802D90320BDE8F88F62
:1013000028688001F4D40EE00128F7D06868226ACA
:1013100000F48031914204D1616A00F47010884277
:1013200001D00120EAE70020E8E7000000100240B9
:10133000000042428004424214000020007000403D
:1013400010B5401EB0F1807F01D3012010BD4FF0D9
:10135000E02460610F21601700F052FE0020A061C0
:1013600007202061002010BD70B590F83C20012AB4
:1013700026D0012480F83C40022280F83D200368FA
:101380005A689D6822F070060A6832435A600D4B15
:1013900002689A4208D0B2F1804F05D00A4B9A42B7
:1013A00002D00A4B9A4204D1496825F080031943C0
:1013B000916080F83D40002180F83C10084670BDE7
:1013C000022070BD002C01400004004000080040D5
:1013D00010B5040003D094F83D0010B107E00120DF
:1013E00010BD002084F83C00204600F01FF80220C9
:1013F00084F83D00211D206800F016FC012084F8CF
:10140000460084F83E0084F83F0084F8400084F8E9
:10141000410084F8420084F8430084F8440084F8D2
:10142000450084F83D00002010BD000008B50068AC
:101430000649884208D10648C16941F00201C161EC
:10144000C06900F00200009008BD000000040040E8
:101450000010024070B5044690F83C0000250128B9
:1014600017D0012684F83C60022084F83D002068F3
:10147000826822F0770222F47F4282600868502856
:1014800038D00DDC20284FD005DC90B3102811D1C6
:101490004AE0022070BD302846D040280AD13BE007
:1014A00060282FD070280DD0B0F5805F03D0B0F544
:1014B000005F12D0012584F83D60002084F83C00D4
:1014C000284670BDCB68D1E90121206800F0F5FB0A
:1014D0002068816841F0770109E0CB68D1E90121FA
:1014E000206800F0EAFB2068816841F48041816057
:1014F000E1E719E0CA684968206800F093FC5021D0
:10150000206806E0CA684968206800F09CFC6021F9
:10151000206800F0DCFBCEE7CA684968206800F06C
:1015200081FC40212068F4E7226801461046F0E77C
:1015300000B585B0002100910191029103910068EE
:101540000B49884211D10B48816941F00401816146
:101550008069694600F004000490C02000900220D9
:10156000019003900448FFF7FFFA05B000BD0000AA
:1015700000040040001002400008014070B504461D
:1015800090F83C0000260D4601280FD0012084F879
:101590003C006AB1042A1DD0082A2FD00C2A3FD063
:1015A0000126002084F83C00304670BD022070BD4A
:1015B000206800F095FB2068816941F00801816195
:1015C0002068816921F004018161206881692A69AC
:1015D000114311E0206800F0ABFB2068816941F401
:1015E000006181612068816921F4806181612068E6
:1015F00081692A6941EA02218161D2E7206800F00D
:10160000C3FB2068C16941F00801C1612068C1695C
:1016100021F00401C1612068C1692A69114311E008
:10162000206800F0DDFB2068C16941F40061C16100
:101630002068C16921F48061C1612068C1692A699B
:1016400041EA0221C161ACE710B5040003D094F86F
:101650003D0010B107E0012010BD002084F83C00DF
:10166000204600F01EF8022084F83D00211D20686D
:1016700000F0DAFA012084F8460084F83E0084F88D
:101680003F0084F8400084F8410084F8420084F868
:10169000430084F8440084F8450084F83D000020AD
:1016A00010BD704710B50446022249B104290ED07E
:1016B000082913D094F84100012816D0012010BD4C
:1016C00094F83E000128F9D184F83E200FE094F808
:1016D0003F000128F2D184F83F2008E094F8400050
:1016E0000128EBD184F8402001E084F84120012258
:1016F000206800F0D5FA0F492068884203D1426C77
:1017000042F4004242642068884208D0B0F1804F21
:1017100005D00949884202D00849884204D181682D
:1017200001F00701062903D0016841F001010160C1
:10173000002010BD002C01400004004000080040C3
:1017400070B5040004D094F84100002510B106E003
:10175000012070BD84F84050204600F023F824207A
:1017600084F841002068C16821F40051C16020461E
:1017700000F0B0FB2068016921F49041016120680C
:10178000416921F02A0141612068C16841F400519A
:10179000C1606564202084F8410084F842006563DC
:1017A000002070BD30B585B00024009401940294EF
:1017B000039400681449884224D11448816941F493
:1017C00080418161816901F480410491816941F026
:1017D0000401816180690E4D00F0040004904FF413
:1017E0000070009002200190032003906946284673
:1017F000FFF7BAF92815CDE9000469462846029496
:10180000FFF7B2F905B030BD0038014000100240CA
:10181000000801402DE9F84F044690F842009A462E
:1018200016460D46202802D00220BDE8F88FB5B13B
:10183000AEB100206064222184F842102063FFF7DB
:1018400083FAA6858146E685A0684FF48058202754
:10185000404501D1206920B12E46002529E0012014
:10186000E3E7002625E04B46002220212046CDF864
:1018700000A000F08BFB18B184F842700320D4E77D
:1018800026B1A06840451AD038B108E02068406809
:10189000C0F3080025F8020B08E0206978B1206841
:1018A000406800F07F0000BF06F8010BE08D401E8D
:1018B000E085E08D0028D6D184F84270B5E7206835
:1018C0004068F1E72DE9F843044690F84100984656
:1018D00016460D46202802D00220BDE8F88385B1C7
:1018E0007EB100206064212084F84100FFF72CFACB
:1018F000A6848146E684A0682027B0F5805F02D0E8
:1019000003E00120E9E7206910B12E4600250EE032
:1019100000260CE08021204600F038FBA8B9C6B1B3
:1019200016F8010B21684860E08C401EE084E08CD2
:101930004B464FF00002CDF800800028EAD14FF06E
:101940004001204600F022FB40B184F841700320A2
:10195000C3E735F8020BC0F30800E3E784F84170F1
:101960000020BAE7FEE7000010B58EB0002407940F
:10197000089409940A940B941C2168460C94FEF771
:101980009EFD2348214901600721C0E9011444F666
:101990001F61C0E903148461FFF71AFD08B172B634
:1019A000FEE74FF48050079007A91948FFF752FD52
:1019B00008B172B6FEE71648FFF746FE08B172B6E8
:1019C000FEE70B940BA912480C94FFF7CDFC08B16D
:1019D00072B6FEE7602000904FF47A70CDE9010402
:1019E000002269460A480494FFF7C8FD08B172B6A0
:1019F000FEE7042269460648FFF7C0FD08B172B64B
:101A0000FEE70348FFF794FD0EB010BD0004004050
:101A100018000020FEE7FEE77047000030B595B0E3
:101A20000546FEF72DFD002303E000BF02F8013C50
:101A3000401E00280ADD2A1812F8011C2029F5D0C2
:101A40000D29F3D00A29F1D00929EFD012AB11AA40
:101A500021A12846FEF750FC224C02281AD014ABD4
:101A600013AA21A12846FEF747FC022816D021A17F
:101A70002846FEF74BFDE8B120A12846FEF746FDBB
:101A8000B0B120A12846FEF741FDB0B100F076F8D4
:101A900015B030BD1198A080129806E0A188139867
:101AA0000844A0806188149808446080FFF742F8D9
:101AB00016A00DE05A20A080F7E7B4F902000090CC
:101AC000B4F9043013A2402101A8FEF78BFB01A852
:101AD00000F0F2F9DCE70000235345542C25642C78
:101AE0002564000000000020234D4F56452C25643E
:101AF0002C2564002343454E544552002353544F34
:101B0000500000002347455400000000234F4B0DB8
:101B10000A0000002353544154452C25642C2564AD
:101B20000D0A000070B5124A0025124C23280CD073
:101B30002178002908D00A280CD00D280AD03F2986
:101B400010D25054491C217070BD23201070012008
:101B5000207070BD012903D955540548FFF75EFF79
:101B6000257070BD2570BDE8704000F007B800001A
:101B7000A8000020000000207047000001A000F035
:101B80009BB90000234552520D0A0000B42800D929
:101B9000B4204FF4FA614843B421B0FBF1F000F5F2
:101BA000FA7080B27047000010B5FFF7EFFF0249EE
:101BB0000968886310BD00001800002010B5FFF709
:101BC000E5FF02490968486310BD000018000020C5
:101BD000FFF7C0B810B590B028216846FEF76FFC3B
:101BE00014210AA8FEF76BFC02200090012004904B
:101BF00010200024059007946846FFF711FA08B1F9
:101C000072B6FEE70F20CDE90A040C940D94002172
:101C10000AA80E94FFF728F9002801D072B6FEE753
:101C200010B010BD70470000F0B50268194B1A4C97
:101C30001A4D4FF08047984205D0B84203D0A042D9
:101C400001D0A84203D122F070064A68324398427C
:101C500005D0B84203D0A04201D0A84203D122F45B
:101C60004074CA6822434C6922F080022243026019
:101C70008A68C2620A688262984201D10969016376
:101C8000012141610169C90703D0016921F0010106
:101C90000161F0BD002C014000040040000800403C
:101CA00010B501F01F030121046A99408C430462BE
:101CB000016A9A401143016210BD10B5846842EA7E
:101CC000032224F47F440A432243826010BD8268C9
:101CD00022F070020A4342F0070181607047000061
:101CE00030B5036A026A22F0010202624268846926
:101CF00024F073050C682C4323F002058B682B43FA
:101D00000A4DA8420BD123F00805CB6822F440729B
:101D10002B434D6923F0040315438A692A4342602B
:101D2000846149684163036230BD0000002C0140BA
:101D300030B5026A036A23F01003036243688469C2
:101D40000D6824F4E64444EA05248D6822F020025C
:101D500042EA05120B4DA8420ED1CD6822F0800256
:101D600042EA05124D6923F4406343EA85038D6915
:101D700022F0400243EA850343608461496881633D
:101D8000026230BD002C014030B5036A026A22F4C1
:101D9000807202624268C46923F4007324F0730500
:101DA0000C682C438D6843EA05230C4DA8420ED1E4
:101DB000CD6823F4006343EA05234D6922F44052C1
:101DC00042EA05128D6923F4806342EA05124260FB
:101DD000C4614968C163036230BD0000002C01404A
:101DE00030B5046A026A22F4805202624268C36912
:101DF0000D6823F4E64343EA05238D6824F4005478
:101E000044EA0534064DA84204D14D6922F48042CB
:101E100042EA85124260C36149680164046230BDD0
:101E2000002C014010B5036A046A24F00104046226
:101E3000846924F0F00444EA021423F00A020A43FD
:101E40008461026210BD10B5036A046A24F01004B4
:101E50000462846923F0A00324F4704444EA02324B
:101E600043EA01118261016210BD01680C3151E841
:101E7000002F22F4907241E80023002BF5D1016875
:101E8000143151E8002F22F0010241E80023002B19
:101E9000F5D1016B012909D101680C3151E8002FFE
:101EA00022F0100241E80023002BF5D1202180F818
:101EB000421000210163704710B50446FEF7E0FAB6
:101EC000214682B2BDE8104064230148FFF7FABC06
:101ED0006000002070B5044600680169E26821F4E2
:101EE0004051114301612169A068084361690843B9
:101EF0002168CA6841F20C639A430243CA602068B1
:101F00004169A26921F44071114341611E49206871
:101F1000884202D1FFF74EF801E0FFF73BF800EBF3
:101F2000C00101EB0012606864218000B2FBF0F395
:101F3000B3FBF1F36FF018067343B2FBF0F5B2FB9D
:101F4000F0F605EB8305322303EB0515B5FBF1F540
:101F5000B6FBF1F605F0F00505EB0615B2FBF0F661
:101F6000B2FBF0F0B0FBF1F06FF01802504306EB5B
:101F7000800003EB0010B0FBF1F0216800F00F00CF
:101F80002844886070BD0000003801402DE9F84306
:101F9000984617460D460446089E24E0701C22D041
:101FA000FEF7D2FEA0EB0800B0421AD8CEB12068EE
:101FB000C168490717D5802D15D0402D13D0016871
:101FC000C94309070FD401680025406800902046E6
:101FD000FFF74BFF0820606484F840500120BDE803
:101FE000F8830320FBE72068006835EA000004D08E
:101FF0000020B842D2D00020F1E70120F9E7FEE747
:102000000907090E002804DB00F1E02080F8001425
:10201000704700F00F0000F1E02080F8141D7047B9
:10202000884201DA084670479042FCDD104670474E
:1020300008B5FEF797FEFFF7CDFD1F48816941F017
:1020400004018161806900F004000090FFF78CFCBE
:102050001B481A490C2201604FF4E1314160002114
:102060008160C160C0E904128161C161FFF768FB52
:1020700008B172B6FEE7124800214838FFF712FB9C
:102080000F4804214838FFF70DFB0E4C5A20A08062
:102090006080FEF74FFD0CA0FFF70EFF09490A23F1
:1020A0000122491C0648FFF7B5FB0028F6D16078ED
:1020B000FFF738FDF2E70000001002400038014051
:1020C000600000200000002023424F4F542C4F4B53
:1020D0000D0A000010B500290AD00878002807D0A2
:1020E00005487844FEF712FA002801D0002010BD00
:1020F0000248784410BD00006A0000006200000041
:10210000010202030405060708090A0B0C0D0E0F55
:102110001010000000000000000001020304060788
:102120000809000000000102030400005C2200080E
:102130000000002018000000280100087422000898
:1021400018000020300700004401000810010000C2
:1021500043000000F8FFFFFF004040404040404087
:10216000404041414141414040404040404040406A
:10217000404040404040404040050202020202020E
:10218000020202020202020202202020202020205D
:102190002020200202020202020290909090909071
:1021A000101010101010101010101010101010102F
:1021B00010101010020202020202888888888888A3
:1021C000080808080808080808080808080808088F
:1021D0000808080802020202400000000000000097
:1021E00000000000000000000000000000000000EF
:1021F00000000000000000000000000000000000DF
:1022000000000000000000000000000000000000CE
:1022100000000000000000000000000000000000BE
:1022200000000000000000000000000000000000AE
:10223000000000000000000000000000000000009E
:10224000000000000000000000000000000000008E
:1022500000000000000000000000000000005A0024
:102260005A00000001000000100000000000000003
:0422700000127A00DE
:04000005080000ED02
:00000001FF
